{
  "_format": "hh-sol-artifact-1",
  "contractName": "BondToken",
  "sourceName": "contracts/BondToken.sol",
  "abi": [
    {
      "inputs": [
        {
          "internalType": "string",
          "name": "name_",
          "type": "string"
        },
        {
          "internalType": "string",
          "name": "symbol_",
          "type": "string"
        },
        {
          "internalType": "address",
          "name": "owner_",
          "type": "address"
        }
      ],
      "stateMutability": "nonpayable",
      "type": "constructor"
    },
    {
      "inputs": [
        {
          "internalType": "address",
          "name": "spender",
          "type": "address"
        },
        {
          "internalType": "uint256",
          "name": "allowance",
          "type": "uint256"
        },
        {
          "internalType": "uint256",
          "name": "needed",
          "type": "uint256"
        }
      ],
      "name": "ERC20InsufficientAllowance",
      "type": "error"
    },
    {
      "inputs": [
        {
          "internalType": "address",
          "name": "sender",
          "type": "address"
        },
        {
          "internalType": "uint256",
          "name": "balance",
          "type": "uint256"
        },
        {
          "internalType": "uint256",
          "name": "needed",
          "type": "uint256"
        }
      ],
      "name": "ERC20InsufficientBalance",
      "type": "error"
    },
    {
      "inputs": [
        {
          "internalType": "address",
          "name": "approver",
          "type": "address"
        }
      ],
      "name": "ERC20InvalidApprover",
      "type": "error"
    },
    {
      "inputs": [
        {
          "internalType": "address",
          "name": "receiver",
          "type": "address"
        }
      ],
      "name": "ERC20InvalidReceiver",
      "type": "error"
    },
    {
      "inputs": [
        {
          "internalType": "address",
          "name": "sender",
          "type": "address"
        }
      ],
      "name": "ERC20InvalidSender",
      "type": "error"
    },
    {
      "inputs": [
        {
          "internalType": "address",
          "name": "spender",
          "type": "address"
        }
      ],
      "name": "ERC20InvalidSpender",
      "type": "error"
    },
    {
      "anonymous": false,
      "inputs": [
        {
          "indexed": true,
          "internalType": "address",
          "name": "owner",
          "type": "address"
        },
        {
          "indexed": true,
          "internalType": "address",
          "name": "spender",
          "type": "address"
        },
        {
          "indexed": false,
          "internalType": "uint256",
          "name": "value",
          "type": "uint256"
        }
      ],
      "name": "Approval",
      "type": "event"
    },
    {
      "anonymous": false,
      "inputs": [
        {
          "indexed": true,
          "internalType": "address",
          "name": "from",
          "type": "address"
        },
        {
          "indexed": true,
          "internalType": "address",
          "name": "to",
          "type": "address"
        },
        {
          "indexed": false,
          "internalType": "uint256",
          "name": "value",
          "type": "uint256"
        }
      ],
      "name": "Transfer",
      "type": "event"
    },
    {
      "inputs": [
        {
          "internalType": "address",
          "name": "owner",
          "type": "address"
        },
        {
          "internalType": "address",
          "name": "spender",
          "type": "address"
        }
      ],
      "name": "allowance",
      "outputs": [
        {
          "internalType": "uint256",
          "name": "",
          "type": "uint256"
        }
      ],
      "stateMutability": "view",
      "type": "function"
    },
    {
      "inputs": [
        {
          "internalType": "address",
          "name": "spender",
          "type": "address"
        },
        {
          "internalType": "uint256",
          "name": "value",
          "type": "uint256"
        }
      ],
      "name": "approve",
      "outputs": [
        {
          "internalType": "bool",
          "name": "",
          "type": "bool"
        }
      ],
      "stateMutability": "nonpayable",
      "type": "function"
    },
    {
      "inputs": [
        {
          "internalType": "address",
          "name": "account",
          "type": "address"
        }
      ],
      "name": "balanceOf",
      "outputs": [
        {
          "internalType": "uint256",
          "name": "",
          "type": "uint256"
        }
      ],
      "stateMutability": "view",
      "type": "function"
    },
    {
      "inputs": [],
      "name": "decimals",
      "outputs": [
        {
          "internalType": "uint8",
          "name": "",
          "type": "uint8"
        }
      ],
      "stateMutability": "view",
      "type": "function"
    },
    {
      "inputs": [
        {
          "internalType": "address",
          "name": "to",
          "type": "address"
        },
        {
          "internalType": "uint256",
          "name": "amount",
          "type": "uint256"
        }
      ],
      "name": "mint",
      "outputs": [],
      "stateMutability": "nonpayable",
      "type": "function"
    },
    {
      "inputs": [],
      "name": "minter",
      "outputs": [
        {
          "internalType": "address",
          "name": "",
          "type": "address"
        }
      ],
      "stateMutability": "view",
      "type": "function"
    },
    {
      "inputs": [],
      "name": "name",
      "outputs": [
        {
          "internalType": "string",
          "name": "",
          "type": "string"
        }
      ],
      "stateMutability": "view",
      "type": "function"
    },
    {
      "inputs": [],
      "name": "owner",
      "outputs": [
        {
          "internalType": "address",
          "name": "",
          "type": "address"
        }
      ],
      "stateMutability": "view",
      "type": "function"
    },
    {
      "inputs": [
        {
          "internalType": "address",
          "name": "m",
          "type": "address"
        }
      ],
      "name": "setMinter",
      "outputs": [],
      "stateMutability": "nonpayable",
      "type": "function"
    },
    {
      "inputs": [],
      "name": "symbol",
      "outputs": [
        {
          "internalType": "string",
          "name": "",
          "type": "string"
        }
      ],
      "stateMutability": "view",
      "type": "function"
    },
    {
      "inputs": [],
      "name": "totalSupply",
      "outputs": [
        {
          "internalType": "uint256",
          "name": "",
          "type": "uint256"
        }
      ],
      "stateMutability": "view",
      "type": "function"
    },
    {
      "inputs": [
        {
          "internalType": "address",
          "name": "to",
          "type": "address"
        },
        {
          "internalType": "uint256",
          "name": "value",
          "type": "uint256"
        }
      ],
      "name": "transfer",
      "outputs": [
        {
          "internalType": "bool",
          "name": "",
          "type": "bool"
        }
      ],
      "stateMutability": "nonpayable",
      "type": "function"
    },
    {
      "inputs": [
        {
          "internalType": "address",
          "name": "from",
          "type": "address"
        },
        {
          "internalType": "address",
          "name": "to",
          "type": "address"
        },
        {
          "internalType": "uint256",
          "name": "value",
          "type": "uint256"
        }
      ],
      "name": "transferFrom",
      "outputs": [
        {
          "internalType": "bool",
          "name": "",
          "type": "bool"
        }
      ],
      "stateMutability": "nonpayable",
      "type": "function"
    }
  ],
  "bytecode": "0x608060405234801561001057600080fd5b506040516119f53803806119f583398181016040528101906100329190610272565b82828160039081610043919061051e565b508060049081610053919061051e565b50505080600560006101000a81548173ffffffffffffffffffffffffffffffffffffffff021916908373ffffffffffffffffffffffffffffffffffffffff1602179055505050506105f0565b6000604051905090565b600080fd5b600080fd5b600080fd5b600080fd5b6000601f19601f8301169050919050565b7f4e487b7100000000000000000000000000000000000000000000000000000000600052604160045260246000fd5b610106826100bd565b810181811067ffffffffffffffff82111715610125576101246100ce565b5b80604052505050565b600061013861009f565b905061014482826100fd565b919050565b600067ffffffffffffffff821115610164576101636100ce565b5b61016d826100bd565b9050602081019050919050565b60005b8381101561019857808201518184015260208101905061017d565b60008484015250505050565b60006101b76101b284610149565b61012e565b9050828152602081018484840111156101d3576101d26100b8565b5b6101de84828561017a565b509392505050565b600082601f8301126101fb576101fa6100b3565b5b815161020b8482602086016101a4565b91505092915050565b600073ffffffffffffffffffffffffffffffffffffffff82169050919050565b600061023f82610214565b9050919050565b61024f81610234565b811461025a57600080fd5b50565b60008151905061026c81610246565b92915050565b60008060006060848603121561028b5761028a6100a9565b5b600084015167ffffffffffffffff8111156102a9576102a86100ae565b5b6102b5868287016101e6565b935050602084015167ffffffffffffffff8111156102d6576102d56100ae565b5b6102e2868287016101e6565b92505060406102f38682870161025d565b9150509250925092565b600081519050919050565b7f4e487b7100000000000000000000000000000000000000000000000000000000600052602260045260246000fd5b6000600282049050600182168061034f57607f821691505b60208210810361036257610361610308565b5b50919050565b60008190508160005260206000209050919050565b60006020601f8301049050919050565b600082821b905092915050565b6000600883026103ca7fffffffffffffffffffffffffffffffffffffffffffffffffffffffffffffffff8261038d565b6103d4868361038d565b95508019841693508086168417925050509392505050565b6000819050919050565b6000819050919050565b600061041b610416610411846103ec565b6103f6565b6103ec565b9050919050565b6000819050919050565b61043583610400565b61044961044182610422565b84845461039a565b825550505050565b600090565b61045e610451565b61046981848461042c565b505050565b5b8181101561048d57610482600082610456565b60018101905061046f565b5050565b601f8211156104d2576104a381610368565b6104ac8461037d565b810160208510156104bb578190505b6104cf6104c78561037d565b83018261046e565b50505b505050565b600082821c905092915050565b60006104f5600019846008026104d7565b1980831691505092915050565b600061050e83836104e4565b9150826002028217905092915050565b610527826102fd565b67ffffffffffffffff8111156105405761053f6100ce565b5b61054a8254610337565b610555828285610491565b600060209050601f8311600181146105885760008415610576578287015190505b6105808582610502565b8655506105e8565b601f19841661059686610368565b60005b828110156105be57848901518255600182019150602085019450602081019050610599565b868310156105db57848901516105d7601f8916826104e4565b8355505b6001600288020188555050505b505050505050565b6113f6806105ff6000396000f3fe608060405234801561001057600080fd5b50600436106100cf5760003560e01c806340c10f191161008c57806395d89b411161006657806395d89b4114610216578063a9059cbb14610234578063dd62ed3e14610264578063fca3b5aa14610294576100cf565b806340c10f19146101ac57806370a08231146101c85780638da5cb5b146101f8576100cf565b806306fdde03146100d457806307546172146100f2578063095ea7b31461011057806318160ddd1461014057806323b872dd1461015e578063313ce5671461018e575b600080fd5b6100dc6102b0565b6040516100e99190610e9a565b60405180910390f35b6100fa610342565b6040516101079190610efd565b60405180910390f35b61012a60048036038101906101259190610f7f565b610368565b6040516101379190610fda565b60405180910390f35b61014861038b565b6040516101559190611004565b60405180910390f35b6101786004803603810190610173919061101f565b610395565b6040516101859190610fda565b60405180910390f35b6101966103c4565b6040516101a3919061108e565b60405180910390f35b6101c660048036038101906101c19190610f7f565b6103cd565b005b6101e260048036038101906101dd91906110a9565b61046b565b6040516101ef9190611004565b60405180910390f35b6102006104b3565b60405161020d9190610efd565b60405180910390f35b61021e6104d9565b60405161022b9190610e9a565b60405180910390f35b61024e60048036038101906102499190610f7f565b61056b565b60405161025b9190610fda565b60405180910390f35b61027e600480360381019061027991906110d6565b61058e565b60405161028b9190611004565b60405180910390f35b6102ae60048036038101906102a991906110a9565b610615565b005b6060600380546102bf90611145565b80601f01602080910402602001604051908101604052809291908181526020018280546102eb90611145565b80156103385780601f1061030d57610100808354040283529160200191610338565b820191906000526020600020905b81548152906001019060200180831161031b57829003601f168201915b5050505050905090565b600660009054906101000a900473ffffffffffffffffffffffffffffffffffffffff1681565b6000806103736107e9565b90506103808185856107f1565b600191505092915050565b6000600254905090565b6000806103a06107e9565b90506103ad858285610803565b6103b8858585610898565b60019150509392505050565b60006012905090565b600660009054906101000a900473ffffffffffffffffffffffffffffffffffffffff1673ffffffffffffffffffffffffffffffffffffffff163373ffffffffffffffffffffffffffffffffffffffff161461045d576040517f08c379a0000000000000000000000000000000000000000000000000000000008152600401610454906111c2565b60405180910390fd5b610467828261098c565b5050565b60008060008373ffffffffffffffffffffffffffffffffffffffff1673ffffffffffffffffffffffffffffffffffffffff168152602001908152602001600020549050919050565b600560009054906101000a900473ffffffffffffffffffffffffffffffffffffffff1681565b6060600480546104e890611145565b80601f016020809104026020016040519081016040528092919081815260200182805461051490611145565b80156105615780601f1061053657610100808354040283529160200191610561565b820191906000526020600020905b81548152906001019060200180831161054457829003601f168201915b5050505050905090565b6000806105766107e9565b9050610583818585610898565b600191505092915050565b6000600160008473ffffffffffffffffffffffffffffffffffffffff1673ffffffffffffffffffffffffffffffffffffffff16815260200190815260200160002060008373ffffffffffffffffffffffffffffffffffffffff1673ffffffffffffffffffffffffffffffffffffffff16815260200190815260200160002054905092915050565b600560009054906101000a900473ffffffffffffffffffffffffffffffffffffffff1673ffffffffffffffffffffffffffffffffffffffff163373ffffffffffffffffffffffffffffffffffffffff16146106a5576040517f08c379a000000000000000000000000000000000000000000000000000000000815260040161069c9061122e565b60405180910390fd5b600073ffffffffffffffffffffffffffffffffffffffff16600660009054906101000a900473ffffffffffffffffffffffffffffffffffffffff1673ffffffffffffffffffffffffffffffffffffffff1614610736576040517f08c379a000000000000000000000000000000000000000000000000000000000815260040161072d9061129a565b60405180910390fd5b600073ffffffffffffffffffffffffffffffffffffffff168173ffffffffffffffffffffffffffffffffffffffff16036107a5576040517f08c379a000000000000000000000000000000000000000000000000000000000815260040161079c90611306565b60405180910390fd5b80600660006101000a81548173ffffffffffffffffffffffffffffffffffffffff021916908373ffffffffffffffffffffffffffffffffffffffff16021790555050565b600033905090565b6107fe8383836001610a0e565b505050565b600061080f848461058e565b90507fffffffffffffffffffffffffffffffffffffffffffffffffffffffffffffffff8110156108925781811015610882578281836040517ffb8f41b200000000000000000000000000000000000000000000000000000000815260040161087993929190611326565b60405180910390fd5b61089184848484036000610a0e565b5b50505050565b600073ffffffffffffffffffffffffffffffffffffffff168373ffffffffffffffffffffffffffffffffffffffff160361090a5760006040517f96c6fd1e0000000000000000000000000000000000000000000000000000000081526004016109019190610efd565b60405180910390fd5b600073ffffffffffffffffffffffffffffffffffffffff168273ffffffffffffffffffffffffffffffffffffffff160361097c5760006040517fec442f050000000000000000000000000000000000000000000000000000000081526004016109739190610efd565b60405180910390fd5b610987838383610be5565b505050565b600073ffffffffffffffffffffffffffffffffffffffff168273ffffffffffffffffffffffffffffffffffffffff16036109fe5760006040517fec442f050000000000000000000000000000000000000000000000000000000081526004016109f59190610efd565b60405180910390fd5b610a0a60008383610be5565b5050565b600073ffffffffffffffffffffffffffffffffffffffff168473ffffffffffffffffffffffffffffffffffffffff1603610a805760006040517fe602df05000000000000000000000000000000000000000000000000000000008152600401610a779190610efd565b60405180910390fd5b600073ffffffffffffffffffffffffffffffffffffffff168373ffffffffffffffffffffffffffffffffffffffff1603610af25760006040517f94280d62000000000000000000000000000000000000000000000000000000008152600401610ae99190610efd565b60405180910390fd5b81600160008673ffffffffffffffffffffffffffffffffffffffff1673ffffffffffffffffffffffffffffffffffffffff16815260200190815260200160002060008573ffffffffffffffffffffffffffffffffffffffff1673ffffffffffffffffffffffffffffffffffffffff168152602001908152602001600020819055508015610bdf578273ffffffffffffffffffffffffffffffffffffffff168473ffffffffffffffffffffffffffffffffffffffff167f8c5be1e5ebec7d5bd14f71427d1e84f3dd0314c0f7b2291e5b200ac8c7c3b92584604051610bd69190611004565b60405180910390a35b50505050565b600073ffffffffffffffffffffffffffffffffffffffff168373ffffffffffffffffffffffffffffffffffffffff1603610c37578060026000828254610c2b919061138c565b92505081905550610d0a565b60008060008573ffffffffffffffffffffffffffffffffffffffff1673ffffffffffffffffffffffffffffffffffffffff16815260200190815260200160002054905081811015610cc3578381836040517fe450d38c000000000000000000000000000000000000000000000000000000008152600401610cba93929190611326565b60405180910390fd5b8181036000808673ffffffffffffffffffffffffffffffffffffffff1673ffffffffffffffffffffffffffffffffffffffff16815260200190815260200160002081905550505b600073ffffffffffffffffffffffffffffffffffffffff168273ffffffffffffffffffffffffffffffffffffffff1603610d535780600260008282540392505081905550610da0565b806000808473ffffffffffffffffffffffffffffffffffffffff1673ffffffffffffffffffffffffffffffffffffffff168152602001908152602001600020600082825401925050819055505b8173ffffffffffffffffffffffffffffffffffffffff168373ffffffffffffffffffffffffffffffffffffffff167fddf252ad1be2c89b69c2b068fc378daa952ba7f163c4a11628f55a4df523b3ef83604051610dfd9190611004565b60405180910390a3505050565b600081519050919050565b600082825260208201905092915050565b60005b83811015610e44578082015181840152602081019050610e29565b60008484015250505050565b6000601f19601f8301169050919050565b6000610e6c82610e0a565b610e768185610e15565b9350610e86818560208601610e26565b610e8f81610e50565b840191505092915050565b60006020820190508181036000830152610eb48184610e61565b905092915050565b600073ffffffffffffffffffffffffffffffffffffffff82169050919050565b6000610ee782610ebc565b9050919050565b610ef781610edc565b82525050565b6000602082019050610f126000830184610eee565b92915050565b600080fd5b610f2681610edc565b8114610f3157600080fd5b50565b600081359050610f4381610f1d565b92915050565b6000819050919050565b610f5c81610f49565b8114610f6757600080fd5b50565b600081359050610f7981610f53565b92915050565b60008060408385031215610f9657610f95610f18565b5b6000610fa485828601610f34565b9250506020610fb585828601610f6a565b9150509250929050565b60008115159050919050565b610fd481610fbf565b82525050565b6000602082019050610fef6000830184610fcb565b92915050565b610ffe81610f49565b82525050565b60006020820190506110196000830184610ff5565b92915050565b60008060006060848603121561103857611037610f18565b5b600061104686828701610f34565b935050602061105786828701610f34565b925050604061106886828701610f6a565b9150509250925092565b600060ff82169050919050565b61108881611072565b82525050565b60006020820190506110a3600083018461107f565b92915050565b6000602082840312156110bf576110be610f18565b5b60006110cd84828501610f34565b91505092915050565b600080604083850312156110ed576110ec610f18565b5b60006110fb85828601610f34565b925050602061110c85828601610f34565b9150509250929050565b7f4e487b7100000000000000000000000000000000000000000000000000000000600052602260045260246000fd5b6000600282049050600182168061115d57607f821691505b6020821081036111705761116f611116565b5b50919050565b7f6e6f74206d696e74657200000000000000000000000000000000000000000000600082015250565b60006111ac600a83610e15565b91506111b782611176565b602082019050919050565b600060208201905081810360008301526111db8161119f565b9050919050565b7f6e6f74206f776e65720000000000000000000000000000000000000000000000600082015250565b6000611218600983610e15565b9150611223826111e2565b602082019050919050565b600060208201905081810360008301526112478161120b565b9050919050565b7f6d696e74657220616c7265616479207365740000000000000000000000000000600082015250565b6000611284601283610e15565b915061128f8261124e565b602082019050919050565b600060208201905081810360008301526112b381611277565b9050919050565b7f626164206d696e74657200000000000000000000000000000000000000000000600082015250565b60006112f0600a83610e15565b91506112fb826112ba565b602082019050919050565b6000602082019050818103600083015261131f816112e3565b9050919050565b600060608201905061133b6000830186610eee565b6113486020830185610ff5565b6113556040830184610ff5565b949350505050565b7f4e487b7100000000000000000000000000000000000000000000000000000000600052601160045260246000fd5b600061139782610f49565b91506113a283610f49565b92508282019050808211156113ba576113b961135d565b5b9291505056fea2646970667358221220af1ad0e1b30532ab1392809a21123b2906134a60e4504d4f8700bc3720a1acee64736f6c634300081c0033",
  "linkReferences": {},
  "deployedLinkReferences": {}
}