{
  "_format": "hh-sol-artifact-1",
  "contractName": "GreenBondEscrow",
  "sourceName": "contracts/GreenBondEscrow.sol",
  "abi": [
    {
      "inputs": [
        {
          "internalType": "address",
          "name": "issuer_",
          "type": "address"
        },
        {
          "internalType": "address",
          "name": "oracle_",
          "type": "address"
        },
        {
          "internalType": "string",
          "name": "name_",
          "type": "string"
        },
        {
          "internalType": "string",
          "name": "symbol_",
          "type": "string"
        },
        {
          "internalType": "uint256",
          "name": "capTokens_",
          "type": "uint256"
        },
        {
          "internalType": "uint256",
          "name": "priceWeiPerToken_",
          "type": "uint256"
        },
        {
          "internalType": "uint256",
          "name": "saleStart_",
          "type": "uint256"
        },
        {
          "internalType": "uint256",
          "name": "saleEnd_",
          "type": "uint256"
        },
        {
          "internalType": "uint256[]",
          "name": "thresholds_",
          "type": "uint256[]"
        },
        {
          "internalType": "uint16[]",
          "name": "bps_",
          "type": "uint16[]"
        }
      ],
      "stateMutability": "nonpayable",
      "type": "constructor"
    },
    {
      "inputs": [],
      "name": "ReentrancyGuardReentrantCall",
      "type": "error"
    },
    {
      "anonymous": false,
      "inputs": [
        {
          "indexed": false,
          "internalType": "uint256",
          "name": "amountWei",
          "type": "uint256"
        },
        {
          "indexed": false,
          "internalType": "address",
          "name": "to",
          "type": "address"
        }
      ],
      "name": "FundsReleased",
      "type": "event"
    },
    {
      "anonymous": false,
      "inputs": [
        {
          "indexed": true,
          "internalType": "address",
          "name": "buyer",
          "type": "address"
        },
        {
          "indexed": false,
          "internalType": "uint256",
          "name": "tokenAmount",
          "type": "uint256"
        },
        {
          "indexed": false,
          "internalType": "uint256",
          "name": "costWei",
          "type": "uint256"
        }
      ],
      "name": "Invested",
      "type": "event"
    },
    {
      "anonymous": false,
      "inputs": [
        {
          "indexed": false,
          "internalType": "uint256",
          "name": "newValue",
          "type": "uint256"
        },
        {
          "indexed": false,
          "internalType": "uint256",
          "name": "cumulativeValue",
          "type": "uint256"
        }
      ],
      "name": "MetricSubmitted",
      "type": "event"
    },
    {
      "anonymous": false,
      "inputs": [
        {
          "indexed": true,
          "internalType": "uint256",
          "name": "idx",
          "type": "uint256"
        },
        {
          "indexed": false,
          "internalType": "uint256",
          "name": "threshold",
          "type": "uint256"
        },
        {
          "indexed": false,
          "internalType": "uint16",
          "name": "bps",
          "type": "uint16"
        }
      ],
      "name": "MilestoneAchieved",
      "type": "event"
    },
    {
      "anonymous": false,
      "inputs": [
        {
          "indexed": false,
          "internalType": "uint256",
          "name": "totalRaised",
          "type": "uint256"
        },
        {
          "indexed": false,
          "internalType": "uint256",
          "name": "tokensSold",
          "type": "uint256"
        }
      ],
      "name": "SaleClosed",
      "type": "event"
    },
    {
      "inputs": [],
      "name": "capTokens",
      "outputs": [
        {
          "internalType": "uint256",
          "name": "",
          "type": "uint256"
        }
      ],
      "stateMutability": "view",
      "type": "function"
    },
    {
      "inputs": [],
      "name": "closeSale",
      "outputs": [],
      "stateMutability": "nonpayable",
      "type": "function"
    },
    {
      "inputs": [],
      "name": "cumulativeMetric",
      "outputs": [
        {
          "internalType": "uint256",
          "name": "",
          "type": "uint256"
        }
      ],
      "stateMutability": "view",
      "type": "function"
    },
    {
      "inputs": [
        {
          "internalType": "uint256",
          "name": "tokenAmount",
          "type": "uint256"
        }
      ],
      "name": "invest",
      "outputs": [],
      "stateMutability": "payable",
      "type": "function"
    },
    {
      "inputs": [],
      "name": "issuer",
      "outputs": [
        {
          "internalType": "address",
          "name": "",
          "type": "address"
        }
      ],
      "stateMutability": "view",
      "type": "function"
    },
    {
      "inputs": [
        {
          "internalType": "uint256",
          "name": "",
          "type": "uint256"
        }
      ],
      "name": "milestones",
      "outputs": [
        {
          "internalType": "uint256",
          "name": "threshold",
          "type": "uint256"
        },
        {
          "internalType": "uint16",
          "name": "releaseBps",
          "type": "uint16"
        },
        {
          "internalType": "bool",
          "name": "achieved",
          "type": "bool"
        },
        {
          "internalType": "uint256",
          "name": "achievedAt",
          "type": "uint256"
        }
      ],
      "stateMutability": "view",
      "type": "function"
    },
    {
      "inputs": [],
      "name": "milestonesCount",
      "outputs": [
        {
          "internalType": "uint256",
          "name": "",
          "type": "uint256"
        }
      ],
      "stateMutability": "view",
      "type": "function"
    },
    {
      "inputs": [
        {
          "internalType": "uint256",
          "name": "cumulativeKwh",
          "type": "uint256"
        }
      ],
      "name": "onOracleUpdate",
      "outputs": [],
      "stateMutability": "nonpayable",
      "type": "function"
    },
    {
      "inputs": [],
      "name": "oracle",
      "outputs": [
        {
          "internalType": "address",
          "name": "",
          "type": "address"
        }
      ],
      "stateMutability": "view",
      "type": "function"
    },
    {
      "inputs": [],
      "name": "priceWeiPerToken",
      "outputs": [
        {
          "internalType": "uint256",
          "name": "",
          "type": "uint256"
        }
      ],
      "stateMutability": "view",
      "type": "function"
    },
    {
      "inputs": [],
      "name": "saleClosed",
      "outputs": [
        {
          "internalType": "bool",
          "name": "",
          "type": "bool"
        }
      ],
      "stateMutability": "view",
      "type": "function"
    },
    {
      "inputs": [],
      "name": "saleEnd",
      "outputs": [
        {
          "internalType": "uint256",
          "name": "",
          "type": "uint256"
        }
      ],
      "stateMutability": "view",
      "type": "function"
    },
    {
      "inputs": [],
      "name": "saleStart",
      "outputs": [
        {
          "internalType": "uint256",
          "name": "",
          "type": "uint256"
        }
      ],
      "stateMutability": "view",
      "type": "function"
    },
    {
      "inputs": [
        {
          "internalType": "address",
          "name": "newOracle",
          "type": "address"
        }
      ],
      "name": "setOracle",
      "outputs": [],
      "stateMutability": "nonpayable",
      "type": "function"
    },
    {
      "inputs": [
        {
          "internalType": "uint256",
          "name": "newValue",
          "type": "uint256"
        }
      ],
      "name": "submitMetric",
      "outputs": [],
      "stateMutability": "nonpayable",
      "type": "function"
    },
    {
      "inputs": [],
      "name": "token",
      "outputs": [
        {
          "internalType": "contract BondToken",
          "name": "",
          "type": "address"
        }
      ],
      "stateMutability": "view",
      "type": "function"
    },
    {
      "inputs": [],
      "name": "tokensSold",
      "outputs": [
        {
          "internalType": "uint256",
          "name": "",
          "type": "uint256"
        }
      ],
      "stateMutability": "view",
      "type": "function"
    },
    {
      "inputs": [],
      "name": "totalRaised",
      "outputs": [
        {
          "internalType": "uint256",
          "name": "",
          "type": "uint256"
        }
      ],
      "stateMutability": "view",
      "type": "function"
    },
    {
      "inputs": [],
      "name": "totalReleased",
      "outputs": [
        {
          "internalType": "uint256",
          "name": "",
          "type": "uint256"
        }
      ],
      "stateMutability": "view",
      "type": "function"
    },
    {
      "inputs": [],
      "name": "withdrawRemainder",
      "outputs": [],
      "stateMutability": "nonpayable",
      "type": "function"
    }
  ],
  "bytecode": "0x608060405234801561001057600080fd5b5060405161467a38038061467a8339818101604052810190610032919061085e565b6001600081905550600073ffffffffffffffffffffffffffffffffffffffff168a73ffffffffffffffffffffffffffffffffffffffff16141580156100a45750600073ffffffffffffffffffffffffffffffffffffffff168973ffffffffffffffffffffffffffffffffffffffff1614155b6100e3576040517f08c379a00000000000000000000000000000000000000000000000000000000081526004016100da90610a0a565b60405180910390fd5b828410610125576040517f08c379a000000000000000000000000000000000000000000000000000000000815260040161011c90610a76565b60405180910390fd5b6000861180156101355750600085115b610174576040517f08c379a000000000000000000000000000000000000000000000000000000000815260040161016b90610ae2565b60405180910390fd5b80518251148015610186575060008251115b6101c5576040517f08c379a00000000000000000000000000000000000000000000000000000000081526004016101bc90610b4e565b60405180910390fd5b600080600090505b82518110156102f0578281815181106101e9576101e8610b6e565b5b602002602001015161ffff16826102009190610bcc565b9150600d604051806080016040528086848151811061022257610221610b6e565b5b6020026020010151815260200185848151811061024257610241610b6e565b5b602002602001015161ffff168152602001600015158152602001600081525090806001815401808255809150506001900390600052602060002090600302016000909190919091506000820151816000015560208201518160010160006101000a81548161ffff021916908361ffff16021790555060408201518160010160026101000a81548160ff02191690831515021790555060608201518160020155505080806001019150506101cd565b506127108114610335576040517f08c379a000000000000000000000000000000000000000000000000000000000815260040161032c90610c4c565b60405180910390fd5b8a600160006101000a81548173ffffffffffffffffffffffffffffffffffffffff021916908373ffffffffffffffffffffffffffffffffffffffff16021790555089600260006101000a81548173ffffffffffffffffffffffffffffffffffffffff021916908373ffffffffffffffffffffffffffffffffffffffff1602179055508660088190555085600481905550846005819055508360068190555060008989600160009054906101000a900473ffffffffffffffffffffffffffffffffffffffff1660405161040690610483565b61041293929190610cbf565b604051809103906000f08015801561042e573d6000803e3d6000fd5b50905080600360006101000a81548173ffffffffffffffffffffffffffffffffffffffff021916908373ffffffffffffffffffffffffffffffffffffffff160217905550505050505050505050505050610d04565b6119f580612c8583390190565b6000604051905090565b600080fd5b600080fd5b600073ffffffffffffffffffffffffffffffffffffffff82169050919050565b60006104cf826104a4565b9050919050565b6104df816104c4565b81146104ea57600080fd5b50565b6000815190506104fc816104d6565b92915050565b600080fd5b600080fd5b6000601f19601f8301169050919050565b7f4e487b7100000000000000000000000000000000000000000000000000000000600052604160045260246000fd5b6105558261050c565b810181811067ffffffffffffffff821117156105745761057361051d565b5b80604052505050565b6000610587610490565b9050610593828261054c565b919050565b600067ffffffffffffffff8211156105b3576105b261051d565b5b6105bc8261050c565b9050602081019050919050565b60005b838110156105e75780820151818401526020810190506105cc565b60008484015250505050565b600061060661060184610598565b61057d565b90508281526020810184848401111561062257610621610507565b5b61062d8482856105c9565b509392505050565b600082601f83011261064a57610649610502565b5b815161065a8482602086016105f3565b91505092915050565b6000819050919050565b61067681610663565b811461068157600080fd5b50565b6000815190506106938161066d565b92915050565b600067ffffffffffffffff8211156106b4576106b361051d565b5b602082029050602081019050919050565b600080fd5b60006106dd6106d884610699565b61057d565b90508083825260208201905060208402830185811115610700576106ff6106c5565b5b835b8181101561072957806107158882610684565b845260208401935050602081019050610702565b5050509392505050565b600082601f83011261074857610747610502565b5b81516107588482602086016106ca565b91505092915050565b600067ffffffffffffffff82111561077c5761077b61051d565b5b602082029050602081019050919050565b600061ffff82169050919050565b6107a48161078d565b81146107af57600080fd5b50565b6000815190506107c18161079b565b92915050565b60006107da6107d584610761565b61057d565b905080838252602082019050602084028301858111156107fd576107fc6106c5565b5b835b81811015610826578061081288826107b2565b8452602084019350506020810190506107ff565b5050509392505050565b600082601f83011261084557610844610502565b5b81516108558482602086016107c7565b91505092915050565b6000806000806000806000806000806101408b8d0312156108825761088161049a565b5b60006108908d828e016104ed565b9a505060206108a18d828e016104ed565b99505060408b015167ffffffffffffffff8111156108c2576108c161049f565b5b6108ce8d828e01610635565b98505060608b015167ffffffffffffffff8111156108ef576108ee61049f565b5b6108fb8d828e01610635565b975050608061090c8d828e01610684565b96505060a061091d8d828e01610684565b95505060c061092e8d828e01610684565b94505060e061093f8d828e01610684565b9350506101008b015167ffffffffffffffff8111156109615761096061049f565b5b61096d8d828e01610733565b9250506101208b015167ffffffffffffffff81111561098f5761098e61049f565b5b61099b8d828e01610830565b9150509295989b9194979a5092959850565b600082825260208201905092915050565b7f6261642061646472000000000000000000000000000000000000000000000000600082015250565b60006109f46008836109ad565b91506109ff826109be565b602082019050919050565b60006020820190508181036000830152610a23816109e7565b9050919050565b7f6261642077696e646f7700000000000000000000000000000000000000000000600082015250565b6000610a60600a836109ad565b9150610a6b82610a2a565b602082019050919050565b60006020820190508181036000830152610a8f81610a53565b9050919050565b7f62616420706172616d7300000000000000000000000000000000000000000000600082015250565b6000610acc600a836109ad565b9150610ad782610a96565b602082019050919050565b60006020820190508181036000830152610afb81610abf565b9050919050565b7f626164206d696c6573746f6e6573000000000000000000000000000000000000600082015250565b6000610b38600e836109ad565b9150610b4382610b02565b602082019050919050565b60006020820190508181036000830152610b6781610b2b565b9050919050565b7f4e487b7100000000000000000000000000000000000000000000000000000000600052603260045260246000fd5b7f4e487b7100000000000000000000000000000000000000000000000000000000600052601160045260246000fd5b6000610bd782610663565b9150610be283610663565b9250828201905080821115610bfa57610bf9610b9d565b5b92915050565b7f627073206d7573742073756d20746f2031303030300000000000000000000000600082015250565b6000610c366015836109ad565b9150610c4182610c00565b602082019050919050565b60006020820190508181036000830152610c6581610c29565b9050919050565b600081519050919050565b6000610c8282610c6c565b610c8c81856109ad565b9350610c9c8185602086016105c9565b610ca58161050c565b840191505092915050565b610cb9816104c4565b82525050565b60006060820190508181036000830152610cd98186610c77565b90508181036020830152610ced8185610c77565b9050610cfc6040830184610cb0565b949350505050565b611f7280610d136000396000f3fe60806040526004361061011f5760003560e01c8063ab36e4a6116100a0578063dbf09d6611610064578063dbf09d6614610380578063e33b7de3146103ab578063e89e4ed6146103d6578063ee55efee14610416578063fc0c546a1461042d5761011f565b8063ab36e4a6146102ab578063b8c766b8146102d6578063c10b935814610301578063c4d473821461032c578063c5c4744c146103555761011f565b80637adbf973116100e75780637adbf973146101ea5780637dc0d1d0146102135780638b9b1cbd1461023e578063a0b70e8714610255578063ab0bcc41146102805761011f565b80631d143848146101245780632afcf4801461014f5780634549b6e11461016b578063518ab2a81461019457806369b1b4c2146101bf575b600080fd5b34801561013057600080fd5b50610139610458565b60405161014691906114d9565b60405180910390f35b6101696004803603810190610164919061152f565b61047e565b005b34801561017757600080fd5b50610192600480360381019061018d919061152f565b61070a565b005b3480156101a057600080fd5b506101a9610ae2565b6040516101b6919061156b565b60405180910390f35b3480156101cb57600080fd5b506101d4610ae8565b6040516101e1919061156b565b60405180910390f35b3480156101f657600080fd5b50610211600480360381019061020c91906115b2565b610aee565b005b34801561021f57600080fd5b50610228610c31565b60405161023591906114d9565b60405180910390f35b34801561024a57600080fd5b50610253610c57565b005b34801561026157600080fd5b5061026a610eb3565b604051610277919061156b565b60405180910390f35b34801561028c57600080fd5b50610295610eb9565b6040516102a2919061156b565b60405180910390f35b3480156102b757600080fd5b506102c0610ebf565b6040516102cd919061156b565b60405180910390f35b3480156102e257600080fd5b506102eb610ecc565b6040516102f891906115fa565b60405180910390f35b34801561030d57600080fd5b50610316610edf565b604051610323919061156b565b60405180910390f35b34801561033857600080fd5b50610353600480360381019061034e919061152f565b610ee5565b005b34801561036157600080fd5b5061036a611236565b604051610377919061156b565b60405180910390f35b34801561038c57600080fd5b5061039561123c565b6040516103a2919061156b565b60405180910390f35b3480156103b757600080fd5b506103c0611242565b6040516103cd919061156b565b60405180910390f35b3480156103e257600080fd5b506103fd60048036038101906103f8919061152f565b611248565b60405161040d9493929190611632565b60405180910390f35b34801561042257600080fd5b5061042b6112a3565b005b34801561043957600080fd5b50610442611422565b60405161044f91906116d6565b60405180910390f35b600160009054906101000a900473ffffffffffffffffffffffffffffffffffffffff1681565b610486611448565b600760009054906101000a900460ff161580156104a557506005544210155b80156104b2575060065442105b6104f1576040517f08c379a00000000000000000000000000000000000000000000000000000000081526004016104e89061174e565b60405180910390fd5b60008111610534576040517f08c379a000000000000000000000000000000000000000000000000000000000815260040161052b906117ba565b60405180910390fd5b600854816009546105459190611809565b1115610586576040517f08c379a000000000000000000000000000000000000000000000000000000000815260040161057d90611889565b60405180910390fd5b6000670de0b6b3a76400006004548361059f91906118a9565b6105a9919061191a565b90508034146105ed576040517f08c379a00000000000000000000000000000000000000000000000000000000081526004016105e490611997565b60405180910390fd5b81600960008282546105ff9190611809565b9250508190555034600a60008282546106189190611809565b92505081905550600360009054906101000a900473ffffffffffffffffffffffffffffffffffffffff1673ffffffffffffffffffffffffffffffffffffffff166340c10f1933846040518363ffffffff1660e01b815260040161067c9291906119b7565b600060405180830381600087803b15801561069657600080fd5b505af11580156106aa573d6000803e3d6000fd5b505050503373ffffffffffffffffffffffffffffffffffffffff167f9e9d071824fd57d062ca63fd8b786d8da48a6807eebbcb2d83f9e8d21398e28c83346040516106f69291906119e0565b60405180910390a25061070761148e565b50565b600260009054906101000a900473ffffffffffffffffffffffffffffffffffffffff1673ffffffffffffffffffffffffffffffffffffffff163373ffffffffffffffffffffffffffffffffffffffff161461079a576040517f08c379a000000000000000000000000000000000000000000000000000000000815260040161079190611a55565b60405180910390fd5b600760009054906101000a900460ff166107e9576040517f08c379a00000000000000000000000000000000000000000000000000000000081526004016107e090611ac1565b60405180910390fd5b6000811161082c576040517f08c379a000000000000000000000000000000000000000000000000000000000815260040161082390611b2d565b60405180910390fd5b80600b600082825461083e9190611809565b925050819055507f3f2cdcddf40a03d29193ed00e2e066b25d89a8931216d3efa3ba8ffeec136f2681600b546040516108789291906119e0565b60405180910390a160005b600d80549050811015610ade576000600d82815481106108a6576108a5611b4d565b5b906000526020600020906003020190508060010160029054906101000a900460ff161580156108db57508060000154600b5410155b15610ad05760018160010160026101000a81548160ff021916908315150217905550428160020181905550817f049e22b2a8f16198fd505d8d3d98c074e50bb89f8665bddced1c8ae0dcf960db82600001548360010160009054906101000a900461ffff1660405161094e929190611b7c565b60405180910390a260006127108260010160009054906101000a900461ffff1661ffff16600a5461097f91906118a9565b610989919061191a565b905080600c600082825461099d9190611809565b925050819055506000600160009054906101000a900473ffffffffffffffffffffffffffffffffffffffff1673ffffffffffffffffffffffffffffffffffffffff16826040516109ec90611bd6565b60006040518083038185875af1925050503d8060008114610a29576040519150601f19603f3d011682016040523d82523d6000602084013e610a2e565b606091505b5050905080610a72576040517f08c379a0000000000000000000000000000000000000000000000000000000008152600401610a6990611c37565b60405180910390fd5b7f8f5073d0a7a22ba450e278541077e181af457be74bea91e61f1f99e6bb40748e82600160009054906101000a900473ffffffffffffffffffffffffffffffffffffffff16604051610ac5929190611c57565b60405180910390a150505b508080600101915050610883565b5050565b60095481565b600b5481565b600160009054906101000a900473ffffffffffffffffffffffffffffffffffffffff1673ffffffffffffffffffffffffffffffffffffffff163373ffffffffffffffffffffffffffffffffffffffff1614610b7e576040517f08c379a0000000000000000000000000000000000000000000000000000000008152600401610b7590611ccc565b60405180910390fd5b600073ffffffffffffffffffffffffffffffffffffffff168173ffffffffffffffffffffffffffffffffffffffff1603610bed576040517f08c379a0000000000000000000000000000000000000000000000000000000008152600401610be490611d38565b60405180910390fd5b80600260006101000a81548173ffffffffffffffffffffffffffffffffffffffff021916908373ffffffffffffffffffffffffffffffffffffffff16021790555050565b600260009054906101000a900473ffffffffffffffffffffffffffffffffffffffff1681565b600160009054906101000a900473ffffffffffffffffffffffffffffffffffffffff1673ffffffffffffffffffffffffffffffffffffffff163373ffffffffffffffffffffffffffffffffffffffff1614610ce7576040517f08c379a0000000000000000000000000000000000000000000000000000000008152600401610cde90611ccc565b60405180910390fd5b60005b600d80549050811015610d7657600d8181548110610d0b57610d0a611b4d565b5b906000526020600020906003020160010160029054906101000a900460ff16610d69576040517f08c379a0000000000000000000000000000000000000000000000000000000008152600401610d6090611da4565b60405180910390fd5b8080600101915050610cea565b5060004790506000811115610eb0576000600160009054906101000a900473ffffffffffffffffffffffffffffffffffffffff1673ffffffffffffffffffffffffffffffffffffffff1682604051610dcd90611bd6565b60006040518083038185875af1925050503d8060008114610e0a576040519150601f19603f3d011682016040523d82523d6000602084013e610e0f565b606091505b5050905080610e53576040517f08c379a0000000000000000000000000000000000000000000000000000000008152600401610e4a90611e10565b60405180910390fd5b7f8f5073d0a7a22ba450e278541077e181af457be74bea91e61f1f99e6bb40748e82600160009054906101000a900473ffffffffffffffffffffffffffffffffffffffff16604051610ea6929190611c57565b60405180910390a1505b50565b60085481565b60055481565b6000600d80549050905090565b600760009054906101000a900460ff1681565b60065481565b600260009054906101000a900473ffffffffffffffffffffffffffffffffffffffff1673ffffffffffffffffffffffffffffffffffffffff163373ffffffffffffffffffffffffffffffffffffffff1614610f75576040517f08c379a0000000000000000000000000000000000000000000000000000000008152600401610f6c90611a55565b60405180910390fd5b6000600b5482610f859190611e30565b905060008111156112325781600b819055507f3f2cdcddf40a03d29193ed00e2e066b25d89a8931216d3efa3ba8ffeec136f2681600b54604051610fca9291906119e0565b60405180910390a160005b600d80549050811015611230576000600d8281548110610ff857610ff7611b4d565b5b906000526020600020906003020190508060010160029054906101000a900460ff1615801561102d57508060000154600b5410155b156112225760018160010160026101000a81548160ff021916908315150217905550428160020181905550817f049e22b2a8f16198fd505d8d3d98c074e50bb89f8665bddced1c8ae0dcf960db82600001548360010160009054906101000a900461ffff166040516110a0929190611b7c565b60405180910390a260006127108260010160009054906101000a900461ffff1661ffff16600a546110d191906118a9565b6110db919061191a565b905080600c60008282546110ef9190611809565b925050819055506000600160009054906101000a900473ffffffffffffffffffffffffffffffffffffffff1673ffffffffffffffffffffffffffffffffffffffff168260405161113e90611bd6565b60006040518083038185875af1925050503d806000811461117b576040519150601f19603f3d011682016040523d82523d6000602084013e611180565b606091505b50509050806111c4576040517f08c379a00000000000000000000000000000000000000000000000000000000081526004016111bb90611c37565b60405180910390fd5b7f8f5073d0a7a22ba450e278541077e181af457be74bea91e61f1f99e6bb40748e82600160009054906101000a900473ffffffffffffffffffffffffffffffffffffffff16604051611217929190611c57565b60405180910390a150505b508080600101915050610fd5565b505b5050565b600a5481565b60045481565b600c5481565b600d818154811061125857600080fd5b90600052602060002090600302016000915090508060000154908060010160009054906101000a900461ffff16908060010160029054906101000a900460ff16908060020154905084565b600160009054906101000a900473ffffffffffffffffffffffffffffffffffffffff1673ffffffffffffffffffffffffffffffffffffffff163373ffffffffffffffffffffffffffffffffffffffff1614611333576040517f08c379a000000000000000000000000000000000000000000000000000000000815260040161132a90611ccc565b60405180910390fd5b600760009054906101000a900460ff1615611383576040517f08c379a000000000000000000000000000000000000000000000000000000000815260040161137a90611eb0565b60405180910390fd5b6006544210156113c8576040517f08c379a00000000000000000000000000000000000000000000000000000000081526004016113bf90611f1c565b60405180910390fd5b6001600760006101000a81548160ff0219169083151502179055507f4615bd5a2ca656ac950059df2c91c70e4cba47a5825a82f93bfa3ef447cc4eec600a546009546040516114189291906119e0565b60405180910390a1565b600360009054906101000a900473ffffffffffffffffffffffffffffffffffffffff1681565b600260005403611484576040517f3ee5aeb500000000000000000000000000000000000000000000000000000000815260040160405180910390fd5b6002600081905550565b6001600081905550565b600073ffffffffffffffffffffffffffffffffffffffff82169050919050565b60006114c382611498565b9050919050565b6114d3816114b8565b82525050565b60006020820190506114ee60008301846114ca565b92915050565b600080fd5b6000819050919050565b61150c816114f9565b811461151757600080fd5b50565b60008135905061152981611503565b92915050565b600060208284031215611545576115446114f4565b5b60006115538482850161151a565b91505092915050565b611565816114f9565b82525050565b6000602082019050611580600083018461155c565b92915050565b61158f816114b8565b811461159a57600080fd5b50565b6000813590506115ac81611586565b92915050565b6000602082840312156115c8576115c76114f4565b5b60006115d68482850161159d565b91505092915050565b60008115159050919050565b6115f4816115df565b82525050565b600060208201905061160f60008301846115eb565b92915050565b600061ffff82169050919050565b61162c81611615565b82525050565b6000608082019050611647600083018761155c565b6116546020830186611623565b61166160408301856115eb565b61166e606083018461155c565b95945050505050565b6000819050919050565b600061169c61169761169284611498565b611677565b611498565b9050919050565b60006116ae82611681565b9050919050565b60006116c0826116a3565b9050919050565b6116d0816116b5565b82525050565b60006020820190506116eb60008301846116c7565b92915050565b600082825260208201905092915050565b7f73616c6520696e61637469766500000000000000000000000000000000000000600082015250565b6000611738600d836116f1565b915061174382611702565b602082019050919050565b600060208201905081810360008301526117678161172b565b9050919050565b7f7a65726f20616d6f756e74000000000000000000000000000000000000000000600082015250565b60006117a4600b836116f1565b91506117af8261176e565b602082019050919050565b600060208201905081810360008301526117d381611797565b9050919050565b7f4e487b7100000000000000000000000000000000000000000000000000000000600052601160045260246000fd5b6000611814826114f9565b915061181f836114f9565b9250828201905080821115611837576118366117da565b5b92915050565b7f6361702065786365656465640000000000000000000000000000000000000000600082015250565b6000611873600c836116f1565b915061187e8261183d565b602082019050919050565b600060208201905081810360008301526118a281611866565b9050919050565b60006118b4826114f9565b91506118bf836114f9565b92508282026118cd816114f9565b915082820484148315176118e4576118e36117da565b5b5092915050565b7f4e487b7100000000000000000000000000000000000000000000000000000000600052601260045260246000fd5b6000611925826114f9565b9150611930836114f9565b9250826119405761193f6118eb565b5b828204905092915050565b7f626164206d73672e76616c756500000000000000000000000000000000000000600082015250565b6000611981600d836116f1565b915061198c8261194b565b602082019050919050565b600060208201905081810360008301526119b081611974565b9050919050565b60006040820190506119cc60008301856114ca565b6119d9602083018461155c565b9392505050565b60006040820190506119f5600083018561155c565b611a02602083018461155c565b9392505050565b7f6e6f74206f7261636c6500000000000000000000000000000000000000000000600082015250565b6000611a3f600a836116f1565b9150611a4a82611a09565b602082019050919050565b60006020820190508181036000830152611a6e81611a32565b9050919050565b7f73616c65206e6f7420636c6f7365640000000000000000000000000000000000600082015250565b6000611aab600f836116f1565b9150611ab682611a75565b602082019050919050565b60006020820190508181036000830152611ada81611a9e565b9050919050565b7f7a65726f206d6574726963000000000000000000000000000000000000000000600082015250565b6000611b17600b836116f1565b9150611b2282611ae1565b602082019050919050565b60006020820190508181036000830152611b4681611b0a565b9050919050565b7f4e487b7100000000000000000000000000000000000000000000000000000000600052603260045260246000fd5b6000604082019050611b91600083018561155c565b611b9e6020830184611623565b9392505050565b600081905092915050565b50565b6000611bc0600083611ba5565b9150611bcb82611bb0565b600082019050919050565b6000611be182611bb3565b9150819050919050565b7f7472616e73666572206661696c65640000000000000000000000000000000000600082015250565b6000611c21600f836116f1565b9150611c2c82611beb565b602082019050919050565b60006020820190508181036000830152611c5081611c14565b9050919050565b6000604082019050611c6c600083018561155c565b611c7960208301846114ca565b9392505050565b7f6e6f742069737375657200000000000000000000000000000000000000000000600082015250565b6000611cb6600a836116f1565b9150611cc182611c80565b602082019050919050565b60006020820190508181036000830152611ce581611ca9565b9050919050565b7f626164206f7261636c6500000000000000000000000000000000000000000000600082015250565b6000611d22600a836116f1565b9150611d2d82611cec565b602082019050919050565b60006020820190508181036000830152611d5181611d15565b9050919050565b7f6d696c6573746f6e652070656e64696e67000000000000000000000000000000600082015250565b6000611d8e6011836116f1565b9150611d9982611d58565b602082019050919050565b60006020820190508181036000830152611dbd81611d81565b9050919050565b7f7769746864726177206661696c65640000000000000000000000000000000000600082015250565b6000611dfa600f836116f1565b9150611e0582611dc4565b602082019050919050565b60006020820190508181036000830152611e2981611ded565b9050919050565b6000611e3b826114f9565b9150611e46836114f9565b9250828203905081811115611e5e57611e5d6117da565b5b92915050565b7f616c726561647920636c6f736564000000000000000000000000000000000000600082015250565b6000611e9a600e836116f1565b9150611ea582611e64565b602082019050919050565b60006020820190508181036000830152611ec981611e8d565b9050919050565b7f746f6f206561726c790000000000000000000000000000000000000000000000600082015250565b6000611f066009836116f1565b9150611f1182611ed0565b602082019050919050565b60006020820190508181036000830152611f3581611ef9565b905091905056fea26469706673582212200381f926b933d02e82904ff0d6ccfc7a57bbf47a0fffa2519d532b0d4beea92264736f6c634300081c0033608060405234801561001057600080fd5b506040516119f53803806119f583398181016040528101906100329190610272565b82828160039081610043919061051e565b508060049081610053919061051e565b50505080600560006101000a81548173ffffffffffffffffffffffffffffffffffffffff021916908373ffffffffffffffffffffffffffffffffffffffff1602179055505050506105f0565b6000604051905090565b600080fd5b600080fd5b600080fd5b600080fd5b6000601f19601f8301169050919050565b7f4e487b7100000000000000000000000000000000000000000000000000000000600052604160045260246000fd5b610106826100bd565b810181811067ffffffffffffffff82111715610125576101246100ce565b5b80604052505050565b600061013861009f565b905061014482826100fd565b919050565b600067ffffffffffffffff821115610164576101636100ce565b5b61016d826100bd565b9050602081019050919050565b60005b8381101561019857808201518184015260208101905061017d565b60008484015250505050565b60006101b76101b284610149565b61012e565b9050828152602081018484840111156101d3576101d26100b8565b5b6101de84828561017a565b509392505050565b600082601f8301126101fb576101fa6100b3565b5b815161020b8482602086016101a4565b91505092915050565b600073ffffffffffffffffffffffffffffffffffffffff82169050919050565b600061023f82610214565b9050919050565b61024f81610234565b811461025a57600080fd5b50565b60008151905061026c81610246565b92915050565b60008060006060848603121561028b5761028a6100a9565b5b600084015167ffffffffffffffff8111156102a9576102a86100ae565b5b6102b5868287016101e6565b935050602084015167ffffffffffffffff8111156102d6576102d56100ae565b5b6102e2868287016101e6565b92505060406102f38682870161025d565b9150509250925092565b600081519050919050565b7f4e487b7100000000000000000000000000000000000000000000000000000000600052602260045260246000fd5b6000600282049050600182168061034f57607f821691505b60208210810361036257610361610308565b5b50919050565b60008190508160005260206000209050919050565b60006020601f8301049050919050565b600082821b905092915050565b6000600883026103ca7fffffffffffffffffffffffffffffffffffffffffffffffffffffffffffffffff8261038d565b6103d4868361038d565b95508019841693508086168417925050509392505050565b6000819050919050565b6000819050919050565b600061041b610416610411846103ec565b6103f6565b6103ec565b9050919050565b6000819050919050565b61043583610400565b61044961044182610422565b84845461039a565b825550505050565b600090565b61045e610451565b61046981848461042c565b505050565b5b8181101561048d57610482600082610456565b60018101905061046f565b5050565b601f8211156104d2576104a381610368565b6104ac8461037d565b810160208510156104bb578190505b6104cf6104c78561037d565b83018261046e565b50505b505050565b600082821c905092915050565b60006104f5600019846008026104d7565b1980831691505092915050565b600061050e83836104e4565b9150826002028217905092915050565b610527826102fd565b67ffffffffffffffff8111156105405761053f6100ce565b5b61054a8254610337565b610555828285610491565b600060209050601f8311600181146105885760008415610576578287015190505b6105808582610502565b8655506105e8565b601f19841661059686610368565b60005b828110156105be57848901518255600182019150602085019450602081019050610599565b868310156105db57848901516105d7601f8916826104e4565b8355505b6001600288020188555050505b505050505050565b6113f6806105ff6000396000f3fe608060405234801561001057600080fd5b50600436106100cf5760003560e01c806340c10f191161008c57806395d89b411161006657806395d89b4114610216578063a9059cbb14610234578063dd62ed3e14610264578063fca3b5aa14610294576100cf565b806340c10f19146101ac57806370a08231146101c85780638da5cb5b146101f8576100cf565b806306fdde03146100d457806307546172146100f2578063095ea7b31461011057806318160ddd1461014057806323b872dd1461015e578063313ce5671461018e575b600080fd5b6100dc6102b0565b6040516100e99190610e9a565b60405180910390f35b6100fa610342565b6040516101079190610efd565b60405180910390f35b61012a60048036038101906101259190610f7f565b610368565b6040516101379190610fda565b60405180910390f35b61014861038b565b6040516101559190611004565b60405180910390f35b6101786004803603810190610173919061101f565b610395565b6040516101859190610fda565b60405180910390f35b6101966103c4565b6040516101a3919061108e565b60405180910390f35b6101c660048036038101906101c19190610f7f565b6103cd565b005b6101e260048036038101906101dd91906110a9565b61046b565b6040516101ef9190611004565b60405180910390f35b6102006104b3565b60405161020d9190610efd565b60405180910390f35b61021e6104d9565b60405161022b9190610e9a565b60405180910390f35b61024e60048036038101906102499190610f7f565b61056b565b60405161025b9190610fda565b60405180910390f35b61027e600480360381019061027991906110d6565b61058e565b60405161028b9190611004565b60405180910390f35b6102ae60048036038101906102a991906110a9565b610615565b005b6060600380546102bf90611145565b80601f01602080910402602001604051908101604052809291908181526020018280546102eb90611145565b80156103385780601f1061030d57610100808354040283529160200191610338565b820191906000526020600020905b81548152906001019060200180831161031b57829003601f168201915b5050505050905090565b600660009054906101000a900473ffffffffffffffffffffffffffffffffffffffff1681565b6000806103736107e9565b90506103808185856107f1565b600191505092915050565b6000600254905090565b6000806103a06107e9565b90506103ad858285610803565b6103b8858585610898565b60019150509392505050565b60006012905090565b600660009054906101000a900473ffffffffffffffffffffffffffffffffffffffff1673ffffffffffffffffffffffffffffffffffffffff163373ffffffffffffffffffffffffffffffffffffffff161461045d576040517f08c379a0000000000000000000000000000000000000000000000000000000008152600401610454906111c2565b60405180910390fd5b610467828261098c565b5050565b60008060008373ffffffffffffffffffffffffffffffffffffffff1673ffffffffffffffffffffffffffffffffffffffff168152602001908152602001600020549050919050565b600560009054906101000a900473ffffffffffffffffffffffffffffffffffffffff1681565b6060600480546104e890611145565b80601f016020809104026020016040519081016040528092919081815260200182805461051490611145565b80156105615780601f1061053657610100808354040283529160200191610561565b820191906000526020600020905b81548152906001019060200180831161054457829003601f168201915b5050505050905090565b6000806105766107e9565b9050610583818585610898565b600191505092915050565b6000600160008473ffffffffffffffffffffffffffffffffffffffff1673ffffffffffffffffffffffffffffffffffffffff16815260200190815260200160002060008373ffffffffffffffffffffffffffffffffffffffff1673ffffffffffffffffffffffffffffffffffffffff16815260200190815260200160002054905092915050565b600560009054906101000a900473ffffffffffffffffffffffffffffffffffffffff1673ffffffffffffffffffffffffffffffffffffffff163373ffffffffffffffffffffffffffffffffffffffff16146106a5576040517f08c379a000000000000000000000000000000000000000000000000000000000815260040161069c9061122e565b60405180910390fd5b600073ffffffffffffffffffffffffffffffffffffffff16600660009054906101000a900473ffffffffffffffffffffffffffffffffffffffff1673ffffffffffffffffffffffffffffffffffffffff1614610736576040517f08c379a000000000000000000000000000000000000000000000000000000000815260040161072d9061129a565b60405180910390fd5b600073ffffffffffffffffffffffffffffffffffffffff168173ffffffffffffffffffffffffffffffffffffffff16036107a5576040517f08c379a000000000000000000000000000000000000000000000000000000000815260040161079c90611306565b60405180910390fd5b80600660006101000a81548173ffffffffffffffffffffffffffffffffffffffff021916908373ffffffffffffffffffffffffffffffffffffffff16021790555050565b600033905090565b6107fe8383836001610a0e565b505050565b600061080f848461058e565b90507fffffffffffffffffffffffffffffffffffffffffffffffffffffffffffffffff8110156108925781811015610882578281836040517ffb8f41b200000000000000000000000000000000000000000000000000000000815260040161087993929190611326565b60405180910390fd5b61089184848484036000610a0e565b5b50505050565b600073ffffffffffffffffffffffffffffffffffffffff168373ffffffffffffffffffffffffffffffffffffffff160361090a5760006040517f96c6fd1e0000000000000000000000000000000000000000000000000000000081526004016109019190610efd565b60405180910390fd5b600073ffffffffffffffffffffffffffffffffffffffff168273ffffffffffffffffffffffffffffffffffffffff160361097c5760006040517fec442f050000000000000000000000000000000000000000000000000000000081526004016109739190610efd565b60405180910390fd5b610987838383610be5565b505050565b600073ffffffffffffffffffffffffffffffffffffffff168273ffffffffffffffffffffffffffffffffffffffff16036109fe5760006040517fec442f050000000000000000000000000000000000000000000000000000000081526004016109f59190610efd565b60405180910390fd5b610a0a60008383610be5565b5050565b600073ffffffffffffffffffffffffffffffffffffffff168473ffffffffffffffffffffffffffffffffffffffff1603610a805760006040517fe602df05000000000000000000000000000000000000000000000000000000008152600401610a779190610efd565b60405180910390fd5b600073ffffffffffffffffffffffffffffffffffffffff168373ffffffffffffffffffffffffffffffffffffffff1603610af25760006040517f94280d62000000000000000000000000000000000000000000000000000000008152600401610ae99190610efd565b60405180910390fd5b81600160008673ffffffffffffffffffffffffffffffffffffffff1673ffffffffffffffffffffffffffffffffffffffff16815260200190815260200160002060008573ffffffffffffffffffffffffffffffffffffffff1673ffffffffffffffffffffffffffffffffffffffff168152602001908152602001600020819055508015610bdf578273ffffffffffffffffffffffffffffffffffffffff168473ffffffffffffffffffffffffffffffffffffffff167f8c5be1e5ebec7d5bd14f71427d1e84f3dd0314c0f7b2291e5b200ac8c7c3b92584604051610bd69190611004565b60405180910390a35b50505050565b600073ffffffffffffffffffffffffffffffffffffffff168373ffffffffffffffffffffffffffffffffffffffff1603610c37578060026000828254610c2b919061138c565b92505081905550610d0a565b60008060008573ffffffffffffffffffffffffffffffffffffffff1673ffffffffffffffffffffffffffffffffffffffff16815260200190815260200160002054905081811015610cc3578381836040517fe450d38c000000000000000000000000000000000000000000000000000000008152600401610cba93929190611326565b60405180910390fd5b8181036000808673ffffffffffffffffffffffffffffffffffffffff1673ffffffffffffffffffffffffffffffffffffffff16815260200190815260200160002081905550505b600073ffffffffffffffffffffffffffffffffffffffff168273ffffffffffffffffffffffffffffffffffffffff1603610d535780600260008282540392505081905550610da0565b806000808473ffffffffffffffffffffffffffffffffffffffff1673ffffffffffffffffffffffffffffffffffffffff168152602001908152602001600020600082825401925050819055505b8173ffffffffffffffffffffffffffffffffffffffff168373ffffffffffffffffffffffffffffffffffffffff167fddf252ad1be2c89b69c2b068fc378daa952ba7f163c4a11628f55a4df523b3ef83604051610dfd9190611004565b60405180910390a3505050565b600081519050919050565b600082825260208201905092915050565b60005b83811015610e44578082015181840152602081019050610e29565b60008484015250505050565b6000601f19601f8301169050919050565b6000610e6c82610e0a565b610e768185610e15565b9350610e86818560208601610e26565b610e8f81610e50565b840191505092915050565b60006020820190508181036000830152610eb48184610e61565b905092915050565b600073ffffffffffffffffffffffffffffffffffffffff82169050919050565b6000610ee782610ebc565b9050919050565b610ef781610edc565b82525050565b6000602082019050610f126000830184610eee565b92915050565b600080fd5b610f2681610edc565b8114610f3157600080fd5b50565b600081359050610f4381610f1d565b92915050565b6000819050919050565b610f5c81610f49565b8114610f6757600080fd5b50565b600081359050610f7981610f53565b92915050565b60008060408385031215610f9657610f95610f18565b5b6000610fa485828601610f34565b9250506020610fb585828601610f6a565b9150509250929050565b60008115159050919050565b610fd481610fbf565b82525050565b6000602082019050610fef6000830184610fcb565b92915050565b610ffe81610f49565b82525050565b60006020820190506110196000830184610ff5565b92915050565b60008060006060848603121561103857611037610f18565b5b600061104686828701610f34565b935050602061105786828701610f34565b925050604061106886828701610f6a565b9150509250925092565b600060ff82169050919050565b61108881611072565b82525050565b60006020820190506110a3600083018461107f565b92915050565b6000602082840312156110bf576110be610f18565b5b60006110cd84828501610f34565b91505092915050565b600080604083850312156110ed576110ec610f18565b5b60006110fb85828601610f34565b925050602061110c85828601610f34565b9150509250929050565b7f4e487b7100000000000000000000000000000000000000000000000000000000600052602260045260246000fd5b6000600282049050600182168061115d57607f821691505b6020821081036111705761116f611116565b5b50919050565b7f6e6f74206d696e74657200000000000000000000000000000000000000000000600082015250565b60006111ac600a83610e15565b91506111b782611176565b602082019050919050565b600060208201905081810360008301526111db8161119f565b9050919050565b7f6e6f74206f776e65720000000000000000000000000000000000000000000000600082015250565b6000611218600983610e15565b9150611223826111e2565b602082019050919050565b600060208201905081810360008301526112478161120b565b9050919050565b7f6d696e74657220616c7265616479207365740000000000000000000000000000600082015250565b6000611284601283610e15565b915061128f8261124e565b602082019050919050565b600060208201905081810360008301526112b381611277565b9050919050565b7f626164206d696e74657200000000000000000000000000000000000000000000600082015250565b60006112f0600a83610e15565b91506112fb826112ba565b602082019050919050565b6000602082019050818103600083015261131f816112e3565b9050919050565b600060608201905061133b6000830186610eee565b6113486020830185610ff5565b6113556040830184610ff5565b949350505050565b7f4e487b7100000000000000000000000000000000000000000000000000000000600052601160045260246000fd5b600061139782610f49565b91506113a283610f49565b92508282019050808211156113ba576113b961135d565b5b9291505056fea2646970667358221220af1ad0e1b30532ab1392809a21123b2906134a60e4504d4f8700bc3720a1acee64736f6c634300081c0033",
  "linkReferences": {},
  "deployedLinkReferences": {}
}