{
  "_format": "hh-sol-artifact-1",
  "contractName": "ImpactOracle",
  "sourceName": "contracts/ImpactOracle.sol",
  "abi": [
    {
      "inputs": [
        {
          "internalType": "address",
          "name": "_owner",
          "type": "address"
        }
      ],
      "stateMutability": "nonpayable",
      "type": "constructor"
    },
    {
      "inputs": [
        {
          "internalType": "address",
          "name": "owner",
          "type": "address"
        }
      ],
      "name": "OwnableInvalidOwner",
      "type": "error"
    },
    {
      "inputs": [
        {
          "internalType": "address",
          "name": "account",
          "type": "address"
        }
      ],
      "name": "OwnableUnauthorizedAccount",
      "type": "error"
    },
    {
      "anonymous": false,
      "inputs": [
        {
          "indexed": false,
          "internalType": "address",
          "name": "escrow",
          "type": "address"
        }
      ],
      "name": "EscrowSet",
      "type": "event"
    },
    {
      "anonymous": false,
      "inputs": [
        {
          "indexed": false,
          "internalType": "uint256",
          "name": "deltaKwh",
          "type": "uint256"
        },
        {
          "indexed": false,
          "internalType": "uint256",
          "name": "deltaCo2Kg",
          "type": "uint256"
        },
        {
          "indexed": false,
          "internalType": "uint256",
          "name": "newCumulativeKwh",
          "type": "uint256"
        },
        {
          "indexed": false,
          "internalType": "uint256",
          "name": "newCumulativeCo2Kg",
          "type": "uint256"
        }
      ],
      "name": "ImpactUpdated",
      "type": "event"
    },
    {
      "anonymous": false,
      "inputs": [
        {
          "indexed": true,
          "internalType": "address",
          "name": "previousOwner",
          "type": "address"
        },
        {
          "indexed": true,
          "internalType": "address",
          "name": "newOwner",
          "type": "address"
        }
      ],
      "name": "OwnershipTransferred",
      "type": "event"
    },
    {
      "anonymous": false,
      "inputs": [
        {
          "indexed": false,
          "internalType": "address",
          "name": "updater",
          "type": "address"
        }
      ],
      "name": "UpdaterSet",
      "type": "event"
    },
    {
      "inputs": [],
      "name": "cumulativeCo2Kg",
      "outputs": [
        {
          "internalType": "uint256",
          "name": "",
          "type": "uint256"
        }
      ],
      "stateMutability": "view",
      "type": "function"
    },
    {
      "inputs": [],
      "name": "cumulativeKwh",
      "outputs": [
        {
          "internalType": "uint256",
          "name": "",
          "type": "uint256"
        }
      ],
      "stateMutability": "view",
      "type": "function"
    },
    {
      "inputs": [],
      "name": "escrow",
      "outputs": [
        {
          "internalType": "address",
          "name": "",
          "type": "address"
        }
      ],
      "stateMutability": "view",
      "type": "function"
    },
    {
      "inputs": [],
      "name": "owner",
      "outputs": [
        {
          "internalType": "address",
          "name": "",
          "type": "address"
        }
      ],
      "stateMutability": "view",
      "type": "function"
    },
    {
      "inputs": [
        {
          "internalType": "uint256",
          "name": "deltaKwh",
          "type": "uint256"
        },
        {
          "internalType": "uint256",
          "name": "deltaCo2Kg",
          "type": "uint256"
        }
      ],
      "name": "pushImpact",
      "outputs": [],
      "stateMutability": "nonpayable",
      "type": "function"
    },
    {
      "inputs": [],
      "name": "renounceOwnership",
      "outputs": [],
      "stateMutability": "nonpayable",
      "type": "function"
    },
    {
      "inputs": [
        {
          "internalType": "address",
          "name": "_escrow",
          "type": "address"
        }
      ],
      "name": "setEscrow",
      "outputs": [],
      "stateMutability": "nonpayable",
      "type": "function"
    },
    {
      "inputs": [
        {
          "internalType": "address",
          "name": "_updater",
          "type": "address"
        }
      ],
      "name": "setUpdater",
      "outputs": [],
      "stateMutability": "nonpayable",
      "type": "function"
    },
    {
      "inputs": [
        {
          "internalType": "address",
          "name": "newOwner",
          "type": "address"
        }
      ],
      "name": "transferOwnership",
      "outputs": [],
      "stateMutability": "nonpayable",
      "type": "function"
    },
    {
      "inputs": [],
      "name": "updater",
      "outputs": [
        {
          "internalType": "address",
          "name": "",
          "type": "address"
        }
      ],
      "stateMutability": "view",
      "type": "function"
    }
  ],
  "bytecode": "0x608060405234801561001057600080fd5b50604051610dc7380380610dc7833981810160405281019061003291906101e2565b80600073ffffffffffffffffffffffffffffffffffffffff168173ffffffffffffffffffffffffffffffffffffffff16036100a55760006040517f1e4fbdf700000000000000000000000000000000000000000000000000000000815260040161009c919061021e565b60405180910390fd5b6100b4816100bb60201b60201c565b5050610239565b60008060009054906101000a900473ffffffffffffffffffffffffffffffffffffffff169050816000806101000a81548173ffffffffffffffffffffffffffffffffffffffff021916908373ffffffffffffffffffffffffffffffffffffffff1602179055508173ffffffffffffffffffffffffffffffffffffffff168173ffffffffffffffffffffffffffffffffffffffff167f8be0079c531659141344cd1fd0a4f28419497f9722a3daafe3b4186f6b6457e060405160405180910390a35050565b600080fd5b600073ffffffffffffffffffffffffffffffffffffffff82169050919050565b60006101af82610184565b9050919050565b6101bf816101a4565b81146101ca57600080fd5b50565b6000815190506101dc816101b6565b92915050565b6000602082840312156101f8576101f761017f565b5b6000610206848285016101cd565b91505092915050565b610218816101a4565b82525050565b6000602082019050610233600083018461020f565b92915050565b610b7f806102486000396000f3fe608060405234801561001057600080fd5b506004361061009e5760003560e01c8063c10c354611610066578063c10c354614610123578063df034cd01461013f578063e2fdcc171461015d578063f2fde38b1461017b578063fa64c051146101975761009e565b80630530f0ac146100a3578063289c62dc146100c1578063715018a6146100df5780638da5cb5b146100e95780639d54f41914610107575b600080fd5b6100ab6101b3565b6040516100b8919061080b565b60405180910390f35b6100c96101b9565b6040516100d6919061080b565b60405180910390f35b6100e76101bf565b005b6100f16101d3565b6040516100fe9190610867565b60405180910390f35b610121600480360381019061011c91906108b3565b6101fc565b005b61013d600480360381019061013891906108b3565b6102ee565b005b6101476103e0565b6040516101549190610867565b60405180910390f35b610165610406565b6040516101729190610867565b60405180910390f35b610195600480360381019061019091906108b3565b61042c565b005b6101b160048036038101906101ac919061090c565b6104b2565b005b60035481565b60045481565b6101c761069f565b6101d16000610726565b565b60008060009054906101000a900473ffffffffffffffffffffffffffffffffffffffff16905090565b61020461069f565b600073ffffffffffffffffffffffffffffffffffffffff168173ffffffffffffffffffffffffffffffffffffffff1603610273576040517f08c379a000000000000000000000000000000000000000000000000000000000815260040161026a906109a9565b60405180910390fd5b80600160006101000a81548173ffffffffffffffffffffffffffffffffffffffff021916908373ffffffffffffffffffffffffffffffffffffffff1602179055507f5a39b8d3fd7361f3c5173afba233b7f1530567d03f9dfb0a2ca414960f08541d816040516102e39190610867565b60405180910390a150565b6102f661069f565b600073ffffffffffffffffffffffffffffffffffffffff168173ffffffffffffffffffffffffffffffffffffffff1603610365576040517f08c379a000000000000000000000000000000000000000000000000000000000815260040161035c90610a15565b60405180910390fd5b80600260006101000a81548173ffffffffffffffffffffffffffffffffffffffff021916908373ffffffffffffffffffffffffffffffffffffffff1602179055507fa585aec3a6cb0e1a084ed18c7638024e40cc3e3ea815166e2cb6fc17d7f1392b816040516103d59190610867565b60405180910390a150565b600160009054906101000a900473ffffffffffffffffffffffffffffffffffffffff1681565b600260009054906101000a900473ffffffffffffffffffffffffffffffffffffffff1681565b61043461069f565b600073ffffffffffffffffffffffffffffffffffffffff168173ffffffffffffffffffffffffffffffffffffffff16036104a65760006040517f1e4fbdf700000000000000000000000000000000000000000000000000000000815260040161049d9190610867565b60405180910390fd5b6104af81610726565b50565b600160009054906101000a900473ffffffffffffffffffffffffffffffffffffffff1673ffffffffffffffffffffffffffffffffffffffff163373ffffffffffffffffffffffffffffffffffffffff1614610542576040517f08c379a000000000000000000000000000000000000000000000000000000000815260040161053990610a81565b60405180910390fd5b81600360008282546105549190610ad0565b92505081905550806004600082825461056d9190610ad0565b925050819055507fda88c3f28083848da784109af19906f7a9253a4407ea1d433570a27c00d2d20582826003546004546040516105ad9493929190610b04565b60405180910390a1600073ffffffffffffffffffffffffffffffffffffffff16600260009054906101000a900473ffffffffffffffffffffffffffffffffffffffff1673ffffffffffffffffffffffffffffffffffffffff161461069b57600260009054906101000a900473ffffffffffffffffffffffffffffffffffffffff1673ffffffffffffffffffffffffffffffffffffffff1663c4d473826003546040518263ffffffff1660e01b8152600401610668919061080b565b600060405180830381600087803b15801561068257600080fd5b505af1158015610696573d6000803e3d6000fd5b505050505b5050565b6106a76107ea565b73ffffffffffffffffffffffffffffffffffffffff166106c56101d3565b73ffffffffffffffffffffffffffffffffffffffff1614610724576106e86107ea565b6040517f118cdaa700000000000000000000000000000000000000000000000000000000815260040161071b9190610867565b60405180910390fd5b565b60008060009054906101000a900473ffffffffffffffffffffffffffffffffffffffff169050816000806101000a81548173ffffffffffffffffffffffffffffffffffffffff021916908373ffffffffffffffffffffffffffffffffffffffff1602179055508173ffffffffffffffffffffffffffffffffffffffff168173ffffffffffffffffffffffffffffffffffffffff167f8be0079c531659141344cd1fd0a4f28419497f9722a3daafe3b4186f6b6457e060405160405180910390a35050565b600033905090565b6000819050919050565b610805816107f2565b82525050565b600060208201905061082060008301846107fc565b92915050565b600073ffffffffffffffffffffffffffffffffffffffff82169050919050565b600061085182610826565b9050919050565b61086181610846565b82525050565b600060208201905061087c6000830184610858565b92915050565b600080fd5b61089081610846565b811461089b57600080fd5b50565b6000813590506108ad81610887565b92915050565b6000602082840312156108c9576108c8610882565b5b60006108d78482850161089e565b91505092915050565b6108e9816107f2565b81146108f457600080fd5b50565b600081359050610906816108e0565b92915050565b6000806040838503121561092357610922610882565b5b6000610931858286016108f7565b9250506020610942858286016108f7565b9150509250929050565b600082825260208201905092915050565b7f75706461746572207a65726f0000000000000000000000000000000000000000600082015250565b6000610993600c8361094c565b915061099e8261095d565b602082019050919050565b600060208201905081810360008301526109c281610986565b9050919050565b7f657363726f77207a65726f000000000000000000000000000000000000000000600082015250565b60006109ff600b8361094c565b9150610a0a826109c9565b602082019050919050565b60006020820190508181036000830152610a2e816109f2565b9050919050565b7f6e6f742075706461746572000000000000000000000000000000000000000000600082015250565b6000610a6b600b8361094c565b9150610a7682610a35565b602082019050919050565b60006020820190508181036000830152610a9a81610a5e565b9050919050565b7f4e487b7100000000000000000000000000000000000000000000000000000000600052601160045260246000fd5b6000610adb826107f2565b9150610ae6836107f2565b9250828201905080821115610afe57610afd610aa1565b5b92915050565b6000608082019050610b1960008301876107fc565b610b2660208301866107fc565b610b3360408301856107fc565b610b4060608301846107fc565b9594505050505056fea264697066735822122035c952478fbec20a9bb2b9e6f4b60f960229558708a8a411ae38d99b76be95b864736f6c634300081c0033",
  "linkReferences": {},
  "deployedLinkReferences": {}
}